{
  "contractName": "Lending",
  "abi": [
    {
      "inputs": [],
      "stateMutability": "nonpayable",
      "type": "constructor"
    },
    {
      "inputs": [
        {
          "internalType": "address",
          "name": "",
          "type": "address"
        }
      ],
      "name": "deposits",
      "outputs": [
        {
          "internalType": "uint256",
          "name": "",
          "type": "uint256"
        }
      ],
      "stateMutability": "view",
      "type": "function",
      "constant": true
    },
    {
      "inputs": [
        {
          "internalType": "address",
          "name": "",
          "type": "address"
        }
      ],
      "name": "loans",
      "outputs": [
        {
          "internalType": "uint256",
          "name": "amount",
          "type": "uint256"
        },
        {
          "internalType": "uint256",
          "name": "interestRate",
          "type": "uint256"
        },
        {
          "internalType": "uint256",
          "name": "startTime",
          "type": "uint256"
        },
        {
          "internalType": "address",
          "name": "borrower",
          "type": "address"
        },
        {
          "internalType": "bool",
          "name": "repaid",
          "type": "bool"
        }
      ],
      "stateMutability": "view",
      "type": "function",
      "constant": true
    },
    {
      "inputs": [],
      "name": "owner",
      "outputs": [
        {
          "internalType": "address",
          "name": "",
          "type": "address"
        }
      ],
      "stateMutability": "view",
      "type": "function",
      "constant": true
    },
    {
      "inputs": [],
      "name": "deposit",
      "outputs": [],
      "stateMutability": "payable",
      "type": "function",
      "payable": true
    },
    {
      "inputs": [
        {
          "internalType": "uint256",
          "name": "amount",
          "type": "uint256"
        }
      ],
      "name": "borrow",
      "outputs": [],
      "stateMutability": "nonpayable",
      "type": "function"
    },
    {
      "inputs": [],
      "name": "repay",
      "outputs": [],
      "stateMutability": "payable",
      "type": "function",
      "payable": true
    },
    {
      "inputs": [
        {
          "components": [
            {
              "internalType": "uint256",
              "name": "amount",
              "type": "uint256"
            },
            {
              "internalType": "uint256",
              "name": "interestRate",
              "type": "uint256"
            },
            {
              "internalType": "uint256",
              "name": "startTime",
              "type": "uint256"
            },
            {
              "internalType": "address",
              "name": "borrower",
              "type": "address"
            },
            {
              "internalType": "bool",
              "name": "repaid",
              "type": "bool"
            }
          ],
          "internalType": "struct Lending.Loan",
          "name": "loan",
          "type": "tuple"
        }
      ],
      "name": "calculateInterest",
      "outputs": [
        {
          "internalType": "uint256",
          "name": "",
          "type": "uint256"
        }
      ],
      "stateMutability": "view",
      "type": "function",
      "constant": true
    },
    {
      "inputs": [
        {
          "internalType": "address",
          "name": "borrower",
          "type": "address"
        }
      ],
      "name": "getTotalDue",
      "outputs": [
        {
          "internalType": "uint256",
          "name": "principal",
          "type": "uint256"
        },
        {
          "internalType": "uint256",
          "name": "interest",
          "type": "uint256"
        },
        {
          "internalType": "uint256",
          "name": "total",
          "type": "uint256"
        }
      ],
      "stateMutability": "view",
      "type": "function",
      "constant": true
    },
    {
      "inputs": [],
      "name": "getDynamicInterest",
      "outputs": [
        {
          "internalType": "uint256",
          "name": "",
          "type": "uint256"
        }
      ],
      "stateMutability": "view",
      "type": "function",
      "constant": true
    },
    {
      "inputs": [],
      "name": "getContractBalance",
      "outputs": [
        {
          "internalType": "uint256",
          "name": "",
          "type": "uint256"
        }
      ],
      "stateMutability": "view",
      "type": "function",
      "constant": true
    }
  ],
  "bytecode": "0x608060405234801561001057600080fd5b50336000806101000a81548173ffffffffffffffffffffffffffffffffffffffff021916908373ffffffffffffffffffffffffffffffffffffffff16021790555061110e806100606000396000f3fe6080604052600436106100915760003560e01c80638da5cb5b116100595780638da5cb5b14610176578063a4c31f6e146101a1578063c5ebeaec146101de578063d0e30db014610207578063fc7e286d1461021157610091565b8063402d88831461009657806351124380146100a05780636f9fb98a146100df57806373b4086b1461010a57806387a58a3e1461014b575b600080fd5b61009e61024e565b005b3480156100ac57600080fd5b506100c760048036038101906100c29190610abf565b6104c1565b6040516100d693929190610ddd565b60405180910390f35b3480156100eb57600080fd5b506100f46105fc565b6040516101019190610dc2565b60405180910390f35b34801561011657600080fd5b50610131600480360381019061012c9190610abf565b610604565b604051610142959493929190610e14565b60405180910390f35b34801561015757600080fd5b50610160610667565b60405161016d9190610dc2565b60405180910390f35b34801561018257600080fd5b5061018b6106aa565b6040516101989190610ce7565b60405180910390f35b3480156101ad57600080fd5b506101c860048036038101906101c39190610ae8565b6106ce565b6040516101d59190610dc2565b60405180910390f35b3480156101ea57600080fd5b5061020560048036038101906102009190610b11565b61071f565b005b61020f610945565b005b34801561021d57600080fd5b5061023860048036038101906102339190610abf565b6109e0565b6040516102459190610dc2565b60405180910390f35b6000600260003373ffffffffffffffffffffffffffffffffffffffff1673ffffffffffffffffffffffffffffffffffffffff168152602001908152602001600020905060008160000154116102d8576040517f08c379a00000000000000000000000000000000000000000000000000000000081526004016102cf90610d42565b60405180910390fd5b8060030160149054906101000a900460ff161561032a576040517f08c379a000000000000000000000000000000000000000000000000000000000815260040161032190610da2565b60405180910390fd5b60006103cf826040518060a00160405290816000820154815260200160018201548152602001600282015481526020016003820160009054906101000a900473ffffffffffffffffffffffffffffffffffffffff1673ffffffffffffffffffffffffffffffffffffffff1673ffffffffffffffffffffffffffffffffffffffff1681526020016003820160149054906101000a900460ff1615151515815250506106ce565b905060008183600001546103e39190610ea9565b905080341015610428576040517f08c379a000000000000000000000000000000000000000000000000000000000815260040161041f90610d02565b60405180910390fd5b60018360030160146101000a81548160ff02191690831515021790555034600160008060009054906101000a900473ffffffffffffffffffffffffffffffffffffffff1673ffffffffffffffffffffffffffffffffffffffff1673ffffffffffffffffffffffffffffffffffffffff16815260200190815260200160002060008282546104b59190610ea9565b92505081905550505050565b600080600080600260008673ffffffffffffffffffffffffffffffffffffffff1673ffffffffffffffffffffffffffffffffffffffff1681526020019081526020016000206040518060a00160405290816000820154815260200160018201548152602001600282015481526020016003820160009054906101000a900473ffffffffffffffffffffffffffffffffffffffff1673ffffffffffffffffffffffffffffffffffffffff1673ffffffffffffffffffffffffffffffffffffffff1681526020016003820160149054906101000a900460ff16151515158152505090506000816000015114806105b6575080608001515b156105cc576000806000935093509350506105f5565b6105d5816106ce565b92508060000151838483600001516105ed9190610ea9565b935093509350505b9193909250565b600047905090565b60026020528060005260406000206000915090508060000154908060010154908060020154908060030160009054906101000a900473ffffffffffffffffffffffffffffffffffffffff16908060030160149054906101000a900460ff16905085565b600080479050678ac7230489e800008111156106875760059150506106a7565b674563918244f400008111156106a157600a9150506106a7565b600f9150505b90565b60008054906101000a900473ffffffffffffffffffffffffffffffffffffffff1681565b6000808260400151426106e19190610f8a565b9050600063bbf81e0082856020015186600001516106ff9190610f30565b6107099190610f30565b6107139190610eff565b90508092505050919050565b60008111610762576040517f08c379a000000000000000000000000000000000000000000000000000000000815260040161075990610d22565b60405180910390fd5b6000600260003373ffffffffffffffffffffffffffffffffffffffff1673ffffffffffffffffffffffffffffffffffffffff16815260200190815260200160002060000154146107e7576040517f08c379a00000000000000000000000000000000000000000000000000000000081526004016107de90610d62565b60405180910390fd5b60006107f1610667565b90506040518060a001604052808381526020018281526020014281526020013373ffffffffffffffffffffffffffffffffffffffff16815260200160001515815250600260003373ffffffffffffffffffffffffffffffffffffffff1673ffffffffffffffffffffffffffffffffffffffff16815260200190815260200160002060008201518160000155602082015181600101556040820151816002015560608201518160030160006101000a81548173ffffffffffffffffffffffffffffffffffffffff021916908373ffffffffffffffffffffffffffffffffffffffff16021790555060808201518160030160146101000a81548160ff0219169083151502179055509050503373ffffffffffffffffffffffffffffffffffffffff166108fc839081150290604051600060405180830381858888f19350505050158015610940573d6000803e3d6000fd5b505050565b60003411610988576040517f08c379a000000000000000000000000000000000000000000000000000000000815260040161097f90610d82565b60405180910390fd5b34600160003373ffffffffffffffffffffffffffffffffffffffff1673ffffffffffffffffffffffffffffffffffffffff16815260200190815260200160002060008282546109d79190610ea9565b92505081905550565b60016020528060005260406000206000915090505481565b600081359050610a0781611093565b92915050565b600081359050610a1c816110aa565b92915050565b600060a08284031215610a3457600080fd5b610a3e60a0610e67565b90506000610a4e84828501610aaa565b6000830152506020610a6284828501610aaa565b6020830152506040610a7684828501610aaa565b6040830152506060610a8a848285016109f8565b6060830152506080610a9e84828501610a0d565b60808301525092915050565b600081359050610ab9816110c1565b92915050565b600060208284031215610ad157600080fd5b6000610adf848285016109f8565b91505092915050565b600060a08284031215610afa57600080fd5b6000610b0884828501610a22565b91505092915050565b600060208284031215610b2357600080fd5b6000610b3184828501610aaa565b91505092915050565b610b4381610fbe565b82525050565b610b5281610fd0565b82525050565b6000610b65601683610e98565b91507f496e73756666696369656e742072657061796d656e74000000000000000000006000830152602082019050919050565b6000610ba5601d83610e98565b91507f416d6f756e74206d7573742062652067726561746572207468616e20300000006000830152602082019050919050565b6000610be5600e83610e98565b91507f4e6f20616374697665206c6f616e0000000000000000000000000000000000006000830152602082019050919050565b6000610c25601083610e98565b91507f416c726561647920626f72726f776564000000000000000000000000000000006000830152602082019050919050565b6000610c65601e83610e98565b91507f4465706f736974206d7573742062652067726561746572207468616e203000006000830152602082019050919050565b6000610ca5600e83610e98565b91507f416c7265616479207265706169640000000000000000000000000000000000006000830152602082019050919050565b610ce181610ffc565b82525050565b6000602082019050610cfc6000830184610b3a565b92915050565b60006020820190508181036000830152610d1b81610b58565b9050919050565b60006020820190508181036000830152610d3b81610b98565b9050919050565b60006020820190508181036000830152610d5b81610bd8565b9050919050565b60006020820190508181036000830152610d7b81610c18565b9050919050565b60006020820190508181036000830152610d9b81610c58565b9050919050565b60006020820190508181036000830152610dbb81610c98565b9050919050565b6000602082019050610dd76000830184610cd8565b92915050565b6000606082019050610df26000830186610cd8565b610dff6020830185610cd8565b610e0c6040830184610cd8565b949350505050565b600060a082019050610e296000830188610cd8565b610e366020830187610cd8565b610e436040830186610cd8565b610e506060830185610b3a565b610e5d6080830184610b49565b9695505050505050565b6000604051905081810181811067ffffffffffffffff82111715610e8e57610e8d611064565b5b8060405250919050565b600082825260208201905092915050565b6000610eb482610ffc565b9150610ebf83610ffc565b9250827fffffffffffffffffffffffffffffffffffffffffffffffffffffffffffffffff03821115610ef457610ef3611006565b5b828201905092915050565b6000610f0a82610ffc565b9150610f1583610ffc565b925082610f2557610f24611035565b5b828204905092915050565b6000610f3b82610ffc565b9150610f4683610ffc565b9250817fffffffffffffffffffffffffffffffffffffffffffffffffffffffffffffffff0483118215151615610f7f57610f7e611006565b5b828202905092915050565b6000610f9582610ffc565b9150610fa083610ffc565b925082821015610fb357610fb2611006565b5b828203905092915050565b6000610fc982610fdc565b9050919050565b60008115159050919050565b600073ffffffffffffffffffffffffffffffffffffffff82169050919050565b6000819050919050565b7f4e487b7100000000000000000000000000000000000000000000000000000000600052601160045260246000fd5b7f4e487b7100000000000000000000000000000000000000000000000000000000600052601260045260246000fd5b7f4e487b7100000000000000000000000000000000000000000000000000000000600052604160045260246000fd5b61109c81610fbe565b81146110a757600080fd5b50565b6110b381610fd0565b81146110be57600080fd5b50565b6110ca81610ffc565b81146110d557600080fd5b5056fea264697066735822122092561cb978b360aa6dc3da04ae9dce86bba18c81ba18b534ac2a99c87d37e91164736f6c63430008000033",
  "immutableReferences": {},
  "source": "// SPDX-License-Identifier: MIT\r\npragma solidity ^0.8.0;\r\n\r\ncontract Lending {\r\n    struct Loan {\r\n        uint amount;\r\n        uint interestRate; // Annual interest rate in %\r\n        uint startTime;\r\n        address borrower;\r\n        bool repaid;\r\n    }\r\n\r\n    address public owner;\r\n    mapping(address => uint) public deposits;\r\n    mapping(address => Loan) public loans;\r\n\r\n    constructor() {\r\n        owner = msg.sender;\r\n    }\r\n\r\n    // Deposit ETH into the lending pool\r\n    function deposit() external payable {\r\n        require(msg.value > 0, \"Deposit must be greater than 0\");\r\n        deposits[msg.sender] += msg.value;\r\n    }\r\n\r\n    // Borrow ETH from the pool\r\n    function borrow(uint amount) external {\r\n        require(amount > 0, \"Amount must be greater than 0\");\r\n        require(loans[msg.sender].amount == 0, \"Already borrowed\");\r\n\r\n        uint dynamicInterest = getDynamicInterest();\r\n        loans[msg.sender] = Loan({\r\n            amount: amount,\r\n            interestRate: dynamicInterest,\r\n            startTime: block.timestamp,\r\n            borrower: msg.sender,\r\n            repaid: false\r\n        });\r\n\r\n        payable(msg.sender).transfer(amount);\r\n    }\r\n\r\n    // Repay the loan with interest\r\n    function repay() external payable {\r\n        Loan storage loan = loans[msg.sender];\r\n        require(loan.amount > 0, \"No active loan\");\r\n        require(!loan.repaid, \"Already repaid\");\r\n\r\n        uint interest = calculateInterest(loan);\r\n        uint totalDue = loan.amount + interest;\r\n\r\n        require(msg.value >= totalDue, \"Insufficient repayment\");\r\n\r\n        loan.repaid = true;\r\n        deposits[owner] += msg.value;\r\n    }\r\n\r\n    // Calculate interest owed on a loan\r\n    function calculateInterest(Loan memory loan) public view returns (uint) {\r\n        uint timeElapsed = block.timestamp - loan.startTime;\r\n        uint interest = (loan.amount * loan.interestRate * timeElapsed) / (365 days * 100);\r\n        return interest;\r\n    }\r\n\r\n    // View-only function to get total due (principal + interest)\r\n    function getTotalDue(address borrower) external view returns (uint principal, uint interest, uint total) {\r\n        Loan memory loan = loans[borrower];\r\n        if (loan.amount == 0 || loan.repaid) {\r\n            return (0, 0, 0);\r\n        }\r\n        interest = calculateInterest(loan);\r\n        return (loan.amount, interest, loan.amount + interest);\r\n    }\r\n\r\n    // Dynamic interest rate based on contract liquidity\r\n    function getDynamicInterest() public view returns (uint) {\r\n        uint balance = address(this).balance;\r\n        if (balance > 10 ether) return 5;  // 5% annually\r\n        if (balance > 5 ether) return 10;\r\n        return 15;\r\n    }\r\n\r\n    // View contract balance\r\n    function getContractBalance() public view returns (uint) {\r\n        return address(this).balance;\r\n    }\r\n}",
  "sourcePath": "D:\\defi-lending-dapp\\contracts\\Lending.sol",
  "compiler": {
    "name": "solc",
    "version": "0.8.0+commit.c7dfd78e.Emscripten.clang"
  },
  "schemaVersion": "3.4.16",
  "updatedAt": "2025-07-04T08:23:25.646Z",
  "networkType": "ethereum",
  "devdoc": {
    "kind": "dev",
    "methods": {},
    "version": 1
  },
  "userdoc": {
    "kind": "user",
    "methods": {},
    "version": 1
  }
}